{
  "txid": "830836bef782ccd6cce6e8743e4adc420c059cb769e14172cc9feb9d3a920d5a",
  "hash": "14c45f3992282715e3af2ae811bd904078549cd578bd957a0f2f2b2af2bc7d22",
  "version": 2,
  "size": 247,
  "vsize": 166,
  "weight": 661,
  "locktime": 53973,
  "vin": [
    {
      "txid": "f73d2e5c4f6eee19cada21b2f26abe9c0e3ee1eaa5863a0add357972e68d971d",
      "vout": 0,
      "scriptSig": {
        "asm": "001403596bcc192b62f9cb5c71637d70ad64abd5a07c",
        "hex": "16001403596bcc192b62f9cb5c71637d70ad64abd5a07c"
      },
      "txinwitness": [
        "3044022023b3ac8e490d6ee70ffc90105f81dd8af05ce6ebc7756f82723b1024c9d364e3022034923e46bf9eb4feed41d934b732661e09cbf90e3a05cc432a9eda71d5bed73001",
        "03c4ec74ae839c212a786526d3718519bc0094a2b48046952e59050a2062b5a187"
      ],
      "sequence": 4294967294
    }
  ],
  "vout": [
    {
      "value": 23.32989992,
      "n": 0,
      "scriptPubKey": {
        "asm": "OP_HASH160 41b3cee9c4aec06bd914776878efb811bfbe7e2b OP_EQUAL",
        "hex": "a91441b3cee9c4aec06bd914776878efb811bfbe7e2b87",
        "reqSigs": 1,
        "type": "scripthash",
        "addresses": ["RFGbQHHWSadpQQ9HhVd8xBfJL74kf2C1az"]
      }
    },
    {
      "value": 0.13239555,
      "n": 1,
      "scriptPubKey": {
        "asm": "OP_HASH160 d364fcd28cd3efc153ddec19217e0982f2f3536f OP_EQUAL",
        "hex": "a914d364fcd28cd3efc153ddec19217e0982f2f3536f87",
        "reqSigs": 1,
        "type": "scripthash",
        "addresses": ["RUYwdjTh3BJZfYBkJfepouVjZrq6TnRWYj"]
      }
    }
  ],
  "hex": "020000000001011d978de6727935dd0a3a86a5eae13e0e9cbe6af2b221daca19ee6e4f5c2e3df7000000001716001403596bcc192b62f9cb5c71637d70ad64abd5a07cfeffffff02289a0e8b0000000017a91441b3cee9c4aec06bd914776878efb811bfbe7e2b870305ca000000000017a914d364fcd28cd3efc153ddec19217e0982f2f3536f8702473044022023b3ac8e490d6ee70ffc90105f81dd8af05ce6ebc7756f82723b1024c9d364e3022034923e46bf9eb4feed41d934b732661e09cbf90e3a05cc432a9eda71d5bed730012103c4ec74ae839c212a786526d3718519bc0094a2b48046952e59050a2062b5a187d5d20000",
  "type": "TX_NONVAULT",
  "status": "CONFIRMED",
  "blockhash": "00000000000000000007493f9b752de8fd26345de223233b12c05a92b2252d1a",
  "confirmations": 4576,
  "time": 1602922915,
  "blocktime": 1602922915,
  "outputs": [
    {
      "value": 23.32989992,
      "n": 0,
      "scriptPubKey": {
        "asm": "OP_HASH160 41b3cee9c4aec06bd914776878efb811bfbe7e2b OP_EQUAL",
        "hex": "a91441b3cee9c4aec06bd914776878efb811bfbe7e2b87",
        "reqSigs": 1,
        "type": "scripthash",
        "addresses": ["RFGbQHHWSadpQQ9HhVd8xBfJL74kf2C1az"]
      },
      "addresses": ["RFGbQHHWSadpQQ9HhVd8xBfJL74kf2C1az"]
    },
    {
      "value": 0.13239555,
      "n": 1,
      "scriptPubKey": {
        "asm": "OP_HASH160 d364fcd28cd3efc153ddec19217e0982f2f3536f OP_EQUAL",
        "hex": "a914d364fcd28cd3efc153ddec19217e0982f2f3536f87",
        "reqSigs": 1,
        "type": "scripthash",
        "addresses": ["RUYwdjTh3BJZfYBkJfepouVjZrq6TnRWYj"]
      },
      "addresses": ["RUYwdjTh3BJZfYBkJfepouVjZrq6TnRWYj"]
    }
  ],
  "inputs": [
    {
      "txid": "f73d2e5c4f6eee19cada21b2f26abe9c0e3ee1eaa5863a0add357972e68d971d",
      "vout": 0,
      "scriptSig": {
        "asm": "001403596bcc192b62f9cb5c71637d70ad64abd5a07c",
        "hex": "16001403596bcc192b62f9cb5c71637d70ad64abd5a07c"
      },
      "txinwitness": [
        "3044022023b3ac8e490d6ee70ffc90105f81dd8af05ce6ebc7756f82723b1024c9d364e3022034923e46bf9eb4feed41d934b732661e09cbf90e3a05cc432a9eda71d5bed73001",
        "03c4ec74ae839c212a786526d3718519bc0094a2b48046952e59050a2062b5a187"
      ],
      "sequence": 4294967294,
      "value": 23.46238444,
      "addresses": ["RDLrp6Bv3dv7k6QZ5aQuA3ZSmemLQK4Ss4"]
    }
  ],
  "height": 53974,
  "value": 13239555,
  "received": "2020-10-17T08:21:55.000Z",
  "walletLabel": "Bomber90"
}
